:100000000C9439000C9456000C9456000C94560035
:100010000C9456000C9456000C9456000C943B0221
:100020000C9456000C9456000C9456000C945600F8
:100030000C9456000C9456000C9456000C945600E8
:100040000C9456000C9456000C9456000C945600D8
:100050000C9456000C9456000C9456000C945600C8
:100060000C9456000C94560009000A010B070C0171
:100070000F0011241FBECFEFD8E0DEBFCDBF11E0CF
:10008000A0E0B1E0E4EDFCE002C005900D92AE32DC
:10009000B107D9F721E0AEE2B1E001C01D92A8346A
:1000A000B207E1F70E94A6020C9468060C940000C7
:1000B0008F929F92AF92BF92CF92DF92EF92FF9278
:1000C0000F931F93FC01CB016230710559F502813A
:1000D00013810230110581F481E190E093838283E2
:1000E0001F910F91FF90EF90DF90CF90BF90AF9056
:1000F0009F908F900C944D0101501109138302833E
:1001000021E030E040E050E060E070E080E090E02E
:100110000E945D03490180819181882999299183F9
:100120008083DECF6330710501F502811381A081E8
:10013000B1810131110541F482E090E09383828323
:10014000A460B183A083CCCF0F5F1F4F13830283C2
:1001500021E030E040E050E060E070E080E090E0DE
:100160000E945D03A22BB32BECCF892BB9F4A081A5
:10017000B18121E030E040E050E060E070E080E0FC
:1001800090E002810E945D03C901A230B10511F423
:100190008960C5CF1197A82BB92BD3CF61307105DA
:1001A00009F09ECFA081B18121E030E040E050E035
:1001B00060E070E080E090E002810E945D03C90190
:1001C000A930B10511F48260AACF1196E4CF803135
:1001D00068F4E82FF0E0E25DFE4F81E090E001C0BE
:1001E000880F6A95EAF76081682B608308958031F3
:1001F00088F4E82FF0E0E25DFE4F81E090E09C01A2
:1002000002C0220F331F6A95E2F7B9016095808121
:10021000682360830895E82FF0E0E25DFE4F80815F
:10022000089598E02D9887FF07C02B9A2D9A880F84
:1002300091509111F7CF08952B98F8CFCF93DF937A
:10024000D82FC62F2A980E9411018C2F0E941101CD
:100250008D2F0E9411018C2F0E9411012A9A2D9836
:10026000DF91CF9108950F931F93CF93DF93259A3A
:10027000229A239AC8E6D0E002E710E0FE018491BA
:10028000319664910E941E0122960C171D07B1F74A
:10029000DF91CF911F910F9108950F931F93CF93EB
:1002A000DF93C8E0D0E82A9800E010E08C2F0E948D
:1002B0001101F801E25DFE4F88E092912D989D2397
:1002C0009923A9F02B9A2D9A81508111F6CF085FBE
:1002D0001F4F0831110551F72A9A2D98D695C15014
:1002E000C111E1CFDF91CF911F910F9108952B980C
:1002F000EACF9FEF980F983010F40C941E010895E8
:10030000CF93C82F8A3019F48DE00E94800180912C
:10031000C00085FFFCCFC093C60080E090E0CF9185
:1003200008958091C00087FFFCCF8091C60090E0C7
:1003300008951092C50083E38093C400E0ECF0E0E0
:1003400080818D7F808386E08093C20088E18093E6
:10035000C10008950E949901E2E4F1E08EE091E08D
:100360009383828380E091E091838083089582E08B
:100370008093B00094E09093B1008093700089EF77
:100380008093B3000895CF93DF9300D000D0CDB712
:10039000DEB78FB7F89420913E0130913F01409134
:1003A00040015091410129833A834B835C838FBF85
:1003B00069817A818B819C810F900F900F900F90B3
:1003C000DF91CF910895E4E6F0E080818F7B808318
:1003D000E0E7F0E08081826080830895E0E7F0E06C
:1003E00080818D7F8083E4E6F0E08081806480837B
:1003F00008958FB7F89410923E0110923F01109229
:100400004001109241018FBF0895462F572FBC0124
:100410002FB7F89480913E0190913F01A091400147
:10042000B0914101840F951FA61FB71F80933E0115
:1004300090933F01A0934001B09341012FBF0895D5
:10044000462F572FBC012FB7F89480913E01909111
:100450003F01A0914001B0914101841B950BA60B77
:10046000B70B80933E0190933F01A0934001B0935E
:1004700041012FBF08951F921FB61F9211248F9321
:100480009F93AF93BF9380913E0190913F01A091C4
:100490004001B09141010196A11DB11D80933E0123
:1004A00090933F01A0934001B0934101BF91AF9160
:1004B0009F918F911F901FBE1F90189590917C0067
:1004C000906490937C0090917A00976090937A006A
:1004D00090917A00906890937A0090917C00982B8C
:1004E00090937C0090917C00907F90937C0083306F
:1004F00029F190F48130C1F08230E1F080917A00EE
:10050000806480937A0080917A0086FDFCCF809190
:1005100078009091790008958430A1F0853071F7CA
:1005200080917C00856003C080917C008160809315
:100530007C00E4CF80917C008260F9CF80917C00C8
:100540008360F5CF80917C008460F1CFCDB7DEB7BA
:10055000C450D2400FB6F894DEBF0FBECDBF80E1CD
:1005600090E09A8389831C821B82389839980E9474
:10057000B70178940E94AA010E94330121E030E083
:1005800040E050E060E070E080E090E00B810E948D
:100590005D03490189819A81882999299A838983F0
:1005A0000E944D01412C512C3201CF5FDD4F18824A
:1005B00019821A821B82C150D2408CE1282E81E020
:1005C000382E05E211E081E00E945E026C01E12C10
:1005D000F12C80E00E945E024C01A12CB12CCF5F77
:1005E000DD4F88819981AA81BB81C150D2408C1591
:1005F0009D05AE05BF0571F01F921F92DF92CF924D
:100600003F922F920E9476030F900F900F900F90C1
:100610000F900F90481459046A047B0471F01F92E4
:100620001F929F928F921F930F930E9476030F90B9
:100630000F900F900F900F900F9061E070E09CE290
:10064000C91691E0D906E104F10448F0ADEBCA16F1
:10065000A2E0DA06E104F10430F060E070E0CE01DF
:1006600001960E94580062E070E0BDEB8B16B2E08C
:100670009B06A104B10448F42CE2821621E0920604
:10068000A104B10430F463E070E0CE0101960E9451
:1006900058008FEF91EEA4E081509040A040E1F728
:1006A00000C0000024013501CF5FDD4FC882D98230
:1006B000EA82FB82C150D24086CF002E083090F0F3
:1006C000982F872F762F652F542F432F322F2227D5
:1006D0000850F4CF220F331F441F551F661F771F8A
:1006E000881F991F0A95B2F7002D0895A0E0B0E089
:1006F000ECE7F3E00C944106AE014B5F5F4FFA016B
:1007000061917191AF0180914401909145010E94E6
:100710008C03E2E00C945D06AFE0B0E0E2E9F3E0C8
:100720000C9434066C017B018A01DC0117961C9243
:100730001E92169713968C9181FFECC12AE0522EDF
:10074000F6019381F70193FD859193FF81917F01DC
:10075000882309F473C0853239F493FD859193FFA2
:1007600081917F01853229F4B60190E00E94A305B2
:10077000E7CF912C612C712CFFE1F71508F446C0EE
:100780008B32C9F1F8F48032C1F1833209F43BC0F5
:10079000833609F48AC0833709F493C0833509F09E
:1007A000B6C0F801A190B1908F01692D70E076FC80
:1007B00002C06FEF7FEFC5010E948D054C01689468
:1007C00077F85FC08D32E1F0803351F020ED280FD3
:1007D0002A3048F18E3209F039C0689476F802C0A8
:1007E000689470F8F70193FD859193FF81917F01E3
:1007F0008111C2CF33C0689471F8689472F8F2CF57
:10080000689473F8EFCF689474F8ECCF77FC26C047
:1008100020ED280F2A3070F476FE05C0959C200D3F
:100820001124922EDFCF659C200D1124622E689436
:1008300075F8D8CF8E3251F476FECFCFD60116960A
:100840008D919C912F96EFE00C9450068C3619F404
:10085000689477F8C7CF883609F4C4CF982F9F7D66
:100860009554933008F094CF0C5F1F4F8FE389832A
:1008700088248394912CAE014F5F5F4F5A01E89416
:1008800077F873FC05C0862D90E08816990640F134
:100890008114910461F5662009F452CFB60180E21B
:1008A00090E00E94A3056A94F6CFD8018C918983C9
:1008B0000E5F1F4F88248394912CFE0131965F01B7
:1008C000DECFD801AD90BD908D01692D70E076FC32
:1008D00002C06FEF7FEFC5010E9498054C01CFCF9A
:1008E000B60180E290E00E94A3056A94CCCFF501A6
:1008F00077FC859177FE81915F01B60190E00E94BF
:10090000A30561106A94F1E08F1A9108C1CF843673
:1009100019F0893609F081C0F80177FE77C061913E
:100920007191819191918F01272D2F76822E97FFC2
:1009300009C090958095709561957F4F8F4F9F4F1F
:10094000689487F82AE030E0AE014F5F5F4F5A01AC
:100950000E94D3058A19A82EBA2C782C86FE0CC0CA
:10096000E89470F8A91440F484FE05C082FC03C02A
:10097000782D7E7E772EB92C74FEA5C0FE01EA0D7F
:10098000F11D8081803309F097C0872D897E782EF4
:1009900073FC0EC070FEA6C09A2CB61418F4960C08
:1009A0009B18B62C862D8B196B1408F480E0B80EBA
:1009B000B61408F099C06B1874FE98C0B60180E3B5
:1009C00090E00E94A30572FE09C088E590E071FCEA
:1009D00002C088E790E0B6010E94A305A91408F4BC
:1009E00092C0AA94B12C9FEFA91AB90ADE01119600
:1009F0004D01AA0EBB1EF50182915F01B60190E088
:100A00000E94A3058A149B04B1F745CF61917191AF
:100A1000072E000C880B990B86CF872CE89484F85E
:100A20002AE030E0853769F0572D597F852E8037D1
:100A300071F118F5883571F18F3609F0FFCE28E095
:100A400030E0F80187FE2EC081919191A191B19182
:100A50008C879D87AE87BF878F01BE016F5F7F4FF9
:100A60005B01AB016C857D858E859F850E94D305DA
:100A70008A19A82EE89487F86FCF883709F0DECE60
:100A800084FE02C0689482F820E130E0DACF6894F6
:100A900084F8F6CF74FE03C0652F6660862E20E1D1
:100AA00032E0CFCF81919191AC0160E070E04C8752
:100AB0005D876E877F87D0CF72FC02C0B39468CF0A
:100AC000B394B39465CF872D8678882309F460CFDB
:100AD000F5CFB60180E290E00E94A30583948614CE
:100AE000C0F360CF8B2CFBCF612C66CF872D86782F
:100AF000882309F473CF8BE271FE80E277FC8DE2EC
:100B0000B60190E069CFB60180E390E00E94A305B2
:100B10009A9464CF8FEF9FEF95CEFC0105906150C2
:100B200070400110D8F7809590958E0F9F1F089503
:100B3000FC016150704001900110D8F780959095AC
:100B40008E0F9F1F08950F931F93CF93DF93182F3E
:100B5000092FEB018B8181FD09C01FEF0FEF812F62
:100B6000902FDF91CF911F910F91089582FF14C0B4
:100B70002E813F818C819D81281739073CF4E881C3
:100B8000F981CF0101969983888310838E819F819B
:100B900001969F838E83E3CFE885F985812F0995A0
:100BA000892BA1F3DACFFA01AA27283051F120319D
:100BB00081F1E8946F936E7F6E5F7F4F8F4F9F4FF1
:100BC000AF4FB1E03ED0B4E03CD0670F781F891F33
:100BD0009A1FA11D680F791F8A1F911DA11D6A0F01
:100BE000711D811D911DA11D20D009F468943F91B4
:100BF0002AE0269F11243019305D3193DEF6CF01B3
:100C00000895462F4770405D4193B3E00FD0C9F778
:100C1000F6CF462F4F70405D4A3318F0495D31FDE5
:100C20004052419302D0A9F7EACFB4E0A695979538
:100C3000879577956795BA95C9F70097610571050E
:100C400008959B01AC010A2E069457954795379558
:100C50002795BA95C9F7620F731F841F951FA01DB2
:100C600008952F923F924F925F926F927F928F9250
:100C70009F92AF92BF92CF92DF92EF92FF920F932B
:100C80001F93CF93DF93CDB7DEB7CA1BDB0B0FB635
:100C9000F894DEBF0FBECDBF09942A8839884888F2
:100CA0005F846E847D848C849B84AA84B984C88488
:100CB000DF80EE80FD800C811B81AA81B981CE0F7F
:100CC000D11D0FB6F894DEBF0FBECDBFED01089564
:040CD000F894FFCFC6
:100CD400000000010000000000009101000000007D
:100CE400000200000000800100000000486F727ADA
:0E0CF4003A25690A00566572743A25690A00AD
:00000001FF
